{
  "contractName": "MonkeyCoin",
  "abi": [
    {
      "constant": true,
      "inputs": [
        {
          "name": "",
          "type": "address"
        }
      ],
      "name": "balances",
      "outputs": [
        {
          "name": "",
          "type": "uint256"
        }
      ],
      "payable": false,
      "stateMutability": "view",
      "type": "function"
    },
    {
      "constant": true,
      "inputs": [
        {
          "name": "",
          "type": "address"
        },
        {
          "name": "",
          "type": "address"
        }
      ],
      "name": "allowed",
      "outputs": [
        {
          "name": "",
          "type": "uint256"
        }
      ],
      "payable": false,
      "stateMutability": "view",
      "type": "function"
    },
    {
      "inputs": [
        {
          "name": "name_",
          "type": "string"
        },
        {
          "name": "symbol_",
          "type": "string"
        }
      ],
      "payable": false,
      "stateMutability": "nonpayable",
      "type": "constructor"
    },
    {
      "anonymous": false,
      "inputs": [
        {
          "indexed": true,
          "name": "from",
          "type": "address"
        },
        {
          "indexed": true,
          "name": "to",
          "type": "address"
        },
        {
          "indexed": false,
          "name": "value",
          "type": "uint256"
        }
      ],
      "name": "Transfer",
      "type": "event"
    },
    {
      "anonymous": false,
      "inputs": [
        {
          "indexed": true,
          "name": "owner",
          "type": "address"
        },
        {
          "indexed": true,
          "name": "spender",
          "type": "address"
        },
        {
          "indexed": false,
          "name": "value",
          "type": "uint256"
        }
      ],
      "name": "Approval",
      "type": "event"
    },
    {
      "constant": true,
      "inputs": [],
      "name": "name",
      "outputs": [
        {
          "name": "",
          "type": "string"
        }
      ],
      "payable": false,
      "stateMutability": "view",
      "type": "function"
    },
    {
      "constant": true,
      "inputs": [],
      "name": "symbol",
      "outputs": [
        {
          "name": "",
          "type": "string"
        }
      ],
      "payable": false,
      "stateMutability": "view",
      "type": "function"
    },
    {
      "constant": true,
      "inputs": [],
      "name": "decimals",
      "outputs": [
        {
          "name": "",
          "type": "uint8"
        }
      ],
      "payable": false,
      "stateMutability": "view",
      "type": "function"
    },
    {
      "constant": true,
      "inputs": [],
      "name": "totalSupply",
      "outputs": [
        {
          "name": "",
          "type": "uint256"
        }
      ],
      "payable": false,
      "stateMutability": "view",
      "type": "function"
    },
    {
      "constant": true,
      "inputs": [
        {
          "name": "who",
          "type": "address"
        }
      ],
      "name": "balanceOf",
      "outputs": [
        {
          "name": "",
          "type": "uint256"
        }
      ],
      "payable": false,
      "stateMutability": "view",
      "type": "function"
    },
    {
      "constant": true,
      "inputs": [
        {
          "name": "owner",
          "type": "address"
        },
        {
          "name": "spender",
          "type": "address"
        }
      ],
      "name": "allowance",
      "outputs": [
        {
          "name": "",
          "type": "uint256"
        }
      ],
      "payable": false,
      "stateMutability": "view",
      "type": "function"
    },
    {
      "constant": false,
      "inputs": [
        {
          "name": "to",
          "type": "address"
        },
        {
          "name": "value",
          "type": "uint256"
        }
      ],
      "name": "transfer",
      "outputs": [
        {
          "name": "",
          "type": "bool"
        }
      ],
      "payable": false,
      "stateMutability": "nonpayable",
      "type": "function"
    },
    {
      "constant": false,
      "inputs": [
        {
          "name": "spender",
          "type": "address"
        },
        {
          "name": "value",
          "type": "uint256"
        }
      ],
      "name": "approve",
      "outputs": [
        {
          "name": "",
          "type": "bool"
        }
      ],
      "payable": false,
      "stateMutability": "nonpayable",
      "type": "function"
    },
    {
      "constant": false,
      "inputs": [
        {
          "name": "from",
          "type": "address"
        },
        {
          "name": "to",
          "type": "address"
        },
        {
          "name": "value",
          "type": "uint256"
        }
      ],
      "name": "transferFrom",
      "outputs": [
        {
          "name": "",
          "type": "bool"
        }
      ],
      "payable": false,
      "stateMutability": "nonpayable",
      "type": "function"
    }
  ],
  "bytecode": "0x608060405234801561001057600080fd5b50604051610b11380380610b118339810180604052604081101561003357600080fd5b81019080805164010000000081111561004b57600080fd5b8201602081018481111561005e57600080fd5b815164010000000081118282018710171561007857600080fd5b5050929190602001805164010000000081111561009457600080fd5b820160208101848111156100a757600080fd5b81516401000000008111828201871017156100c157600080fd5b505084519093506100db9250600091506020850190610119565b5080516100ef906001906020840190610119565b50506002805460ff19169055506103e86003819055336000908152600460205260409020556101b4565b828054600181600116156101000203166002900490600052602060002090601f016020900481019282601f1061015a57805160ff1916838001178555610187565b82800160010185558215610187579182015b8281111561018757825182559160200191906001019061016c565b50610193929150610197565b5090565b6101b191905b80821115610193576000815560010161019d565b90565b61094e806101c36000396000f3fe6080604052600436106100a8577c0100000000000000000000000000000000000000000000000000000000600035046306fdde0381146100ad578063095ea7b31461013757806318160ddd1461018457806323b872dd146101ab57806327e235e3146101ee578063313ce567146102215780635c6581651461024c57806370a082311461028757806395d89b41146102ba578063a9059cbb146102cf578063dd62ed3e14610308575b600080fd5b3480156100b957600080fd5b506100c2610343565b6040805160208082528351818301528351919283929083019185019080838360005b838110156100fc5781810151838201526020016100e4565b50505050905090810190601f1680156101295780820380516001836020036101000a031916815260200191505b509250505060405180910390f35b34801561014357600080fd5b506101706004803603604081101561015a57600080fd5b50600160a060020a0381351690602001356103d9565b604080519115158252519081900360200190f35b34801561019057600080fd5b506101996103ef565b60408051918252519081900360200190f35b3480156101b757600080fd5b50610170600480360360608110156101ce57600080fd5b50600160a060020a038135811691602081013590911690604001356103f5565b3480156101fa57600080fd5b506101996004803603602081101561021157600080fd5b5035600160a060020a03166104bc565b34801561022d57600080fd5b506102366104ce565b6040805160ff9092168252519081900360200190f35b34801561025857600080fd5b506101996004803603604081101561026f57600080fd5b50600160a060020a03813581169160200135166104d7565b34801561029357600080fd5b50610199600480360360208110156102aa57600080fd5b5035600160a060020a03166104f4565b3480156102c657600080fd5b506100c261050f565b3480156102db57600080fd5b50610170600480360360408110156102f257600080fd5b50600160a060020a03813516906020013561056f565b34801561031457600080fd5b506101996004803603604081101561032b57600080fd5b50600160a060020a038135811691602001351661057c565b60008054604080516020601f60026000196101006001881615020190951694909404938401819004810282018101909252828152606093909290918301828280156103cf5780601f106103a4576101008083540402835291602001916103cf565b820191906000526020600020905b8154815290600101906020018083116103b257829003601f168201915b5050505050905090565b60006103e63384846105a7565b50600192915050565b60035490565b6000610402848484610714565b600160a060020a0384166000908152600560209081526040808320338452909152902054828110156104a4576040805160e560020a62461bcd02815260206004820152602860248201527f45524332303a207472616e7366657220616d6f756e742065786365656473206160448201527f6c6c6f77616e6365000000000000000000000000000000000000000000000000606482015290519081900360840190fd5b6104b185338584036105a7565b506001949350505050565b60046020526000908152604090205481565b60025460ff1690565b600560209081526000928352604080842090915290825290205481565b600160a060020a031660009081526004602052604090205490565b60018054604080516020601f600260001961010087891615020190951694909404938401819004810282018101909252828152606093909290918301828280156103cf5780601f106103a4576101008083540402835291602001916103cf565b60006103e6338484610714565b600160a060020a03918216600090815260056020908152604080832093909416825291909152205490565b600160a060020a038316151561062c576040805160e560020a62461bcd028152602060048201526024808201527f45524332303a20617070726f76652066726f6d20746865207a65726f2061646460448201527f7265737300000000000000000000000000000000000000000000000000000000606482015290519081900360840190fd5b600160a060020a03821615156106b2576040805160e560020a62461bcd02815260206004820152602260248201527f45524332303a20617070726f766520746f20746865207a65726f20616464726560448201527f7373000000000000000000000000000000000000000000000000000000000000606482015290519081900360840190fd5b600160a060020a03808416600081815260056020908152604080832094871680845294825291829020859055815185815291517f8c5be1e5ebec7d5bd14f71427d1e84f3dd0314c0f7b2291e5b200ac8c7c3b9259281900390910190a3505050565b600160a060020a038316151561079a576040805160e560020a62461bcd02815260206004820152602560248201527f45524332303a207472616e736665722066726f6d20746865207a65726f20616460448201527f6472657373000000000000000000000000000000000000000000000000000000606482015290519081900360840190fd5b600160a060020a0382161515610820576040805160e560020a62461bcd02815260206004820152602360248201527f45524332303a207472616e7366657220746f20746865207a65726f206164647260448201527f6573730000000000000000000000000000000000000000000000000000000000606482015290519081900360840190fd5b600160a060020a038316600090815260046020526040902054818110156108b7576040805160e560020a62461bcd02815260206004820152602660248201527f45524332303a207472616e7366657220616d6f756e742065786365656473206260448201527f616c616e63650000000000000000000000000000000000000000000000000000606482015290519081900360840190fd5b600160a060020a0380851660008181526004602090815260408083208787039055938716808352918490208054870190558351868152935191937fddf252ad1be2c89b69c2b068fc378daa952ba7f163c4a11628f55a4df523b3ef929081900390910190a35050505056fea165627a7a72305820000c467b451417a8b700e4c87d732d8b0f1443c1aecb29c538003e460a515d0e0029",
  "source": "// SPDX-License-Identifier: MIT\r\npragma solidity >=0.5.1 <0.9.0;\r\n\r\nimport \"./ERC20.sol\";\r\n\r\n// reference to https://github.com/OpenZeppelin/openzeppelin-contracts/blob/master/contracts/token/ERC20/ERC20.sol\r\ncontract MonkeyCoin is ERC20 {\r\n    string private _name;\r\n    string private _symbol;\r\n    uint8 private _decimals;\r\n    uint256 private _totalSupply;\r\n\r\n    mapping(address => uint256) public balances;\r\n    mapping(address => mapping(address => uint256)) public allowed;\r\n\r\n    constructor(string memory name_, string memory symbol_) public {\r\n        _name = name_;\r\n        _symbol = symbol_;\r\n        _decimals = 0;\r\n        _totalSupply = 1000;\r\n        balances[msg.sender] = 1000;\r\n    }\r\n\r\n    function name() public view returns (string memory) {\r\n        return _name;\r\n    }\r\n\r\n    function symbol() public view returns (string memory) {\r\n        return _symbol;\r\n    }\r\n\r\n    function decimals() public view returns (uint8) {\r\n        return _decimals;\r\n    }\r\n\r\n    function totalSupply() external view returns (uint256) {\r\n        return _totalSupply;\r\n    }\r\n\r\n    function balanceOf(address who) external view returns (uint256) {\r\n        return balances[who];\r\n    }\r\n\r\n    function allowance(address owner, address spender)\r\n        external\r\n        view\r\n        returns (uint256)\r\n    {\r\n        return allowed[owner][spender];\r\n    }\r\n\r\n    function transfer(address to, uint256 value) external returns (bool) {\r\n        _transfer(msg.sender, to, value);\r\n        return true;\r\n    }\r\n\r\n    function approve(address spender, uint256 value) external returns (bool) {\r\n        _approve(msg.sender, spender, value);\r\n        return true;\r\n    }\r\n\r\n    function transferFrom(\r\n        address from,\r\n        address to,\r\n        uint256 value\r\n    ) external returns (bool) {\r\n        _transfer(from, to, value);\r\n\r\n        uint256 currentAllowance = allowed[from][msg.sender];\r\n        require(\r\n            currentAllowance >= value,\r\n            \"ERC20: transfer amount exceeds allowance\"\r\n        );\r\n        _approve(from, msg.sender, currentAllowance - value);\r\n\r\n        return true;\r\n    }\r\n\r\n    //\r\n    //\r\n    // helper functions\r\n\r\n    function _transfer(\r\n        address sender,\r\n        address recipient,\r\n        uint256 amount\r\n    ) internal {\r\n        require(sender != address(0), \"ERC20: transfer from the zero address\");\r\n        require(recipient != address(0), \"ERC20: transfer to the zero address\");\r\n\r\n        // _beforeTokenTransfer(sender, recipient, amount);\r\n\r\n        uint256 senderBalance = balances[sender];\r\n        require(\r\n            senderBalance >= amount,\r\n            \"ERC20: transfer amount exceeds balance\"\r\n        );\r\n        balances[sender] = senderBalance - amount;\r\n        balances[recipient] += amount;\r\n\r\n        emit Transfer(sender, recipient, amount);\r\n\r\n        // _afterTokenTransfer(sender, recipient, amount);\r\n    }\r\n\r\n    function _approve(\r\n        address owner,\r\n        address spender,\r\n        uint256 amount\r\n    ) internal {\r\n        require(owner != address(0), \"ERC20: approve from the zero address\");\r\n        require(spender != address(0), \"ERC20: approve to the zero address\");\r\n\r\n        allowed[owner][spender] = amount;\r\n        emit Approval(owner, spender, amount);\r\n    }\r\n\r\n    // function increaseAllowance(address spender, uint256 addedValue)\r\n    //     public\r\n    //\r\n    //     returns (bool)\r\n    // {\r\n    //     _approve(\r\n    //         msg.sender,\r\n    //         spender,\r\n    //         allowed[msg.sender][spender] + addedValue\r\n    //     );\r\n    //     return true;\r\n    // }\r\n\r\n    // function decreaseAllowance(address spender, uint256 subtractedValue)\r\n    //     public\r\n    //\r\n    //     returns (bool)\r\n    // {\r\n    //     uint256 currentAllowance = allowed[msg.sender][spender];\r\n    //     require(\r\n    //         currentAllowance >= subtractedValue,\r\n    //         \"ERC20: decreased allowance below zero\"\r\n    //     );\r\n    //     unchecked {\r\n    //         _approve(msg.sender, spender, currentAllowance - subtractedValue);\r\n    //     }\r\n\r\n    //     return true;\r\n    // }\r\n\r\n    // function _mint(address account, uint256 amount) internal {\r\n    //     require(account != address(0), \"ERC20: mint to the zero address\");\r\n\r\n    //     _beforeTokenTransfer(address(0), account, amount);\r\n\r\n    //     _totalSupply += amount;\r\n    //     balances[account] += amount;\r\n    //     emit Transfer(address(0), account, amount);\r\n\r\n    //     _afterTokenTransfer(address(0), account, amount);\r\n    // }\r\n\r\n    // function _burn(address account, uint256 amount) internal {\r\n    //     require(account != address(0), \"ERC20: burn from the zero address\");\r\n\r\n    //     _beforeTokenTransfer(account, address(0), amount);\r\n\r\n    //     uint256 accountBalance = balances[account];\r\n    //     require(accountBalance >= amount, \"ERC20: burn amount exceeds balance\");\r\n    //     unchecked {\r\n    //         balances[account] = accountBalance - amount;\r\n    //     }\r\n    //     _totalSupply -= amount;\r\n\r\n    //     emit Transfer(account, address(0), amount);\r\n\r\n    //     _afterTokenTransfer(account, address(0), amount);\r\n    // }\r\n\r\n    // function _beforeTokenTransfer(\r\n    //     address from,\r\n    //     address to,\r\n    //     uint256 amount\r\n    // ) internal {}\r\n\r\n    // function _afterTokenTransfer(\r\n    //     address from,\r\n    //     address to,\r\n    //     uint256 amount\r\n    // ) internal {}\r\n}\r\n",
  "sourcePath": "C:\\Users\\Calvin\\Desktop\\gec-academy\\3\\ERC20\\contracts\\MonkeyCoin.sol",
  "compiler": {
    "name": "solc",
    "version": "0.5.1+commit.c8a2cb62.Emscripten.clang"
  },
  "schemaVersion": "3.4.3",
  "updatedAt": "2021-09-07T07:42:26.447Z",
  "devdoc": {
    "methods": {}
  },
  "userdoc": {
    "methods": {}
  }
}