{
  "contractName": "BlockNumber",
  "abi": [
    {
      "inputs": [],
      "payable": false,
      "stateMutability": "nonpayable",
      "type": "constructor"
    },
    {
      "constant": true,
      "inputs": [],
      "name": "getInitBlockNumber",
      "outputs": [
        {
          "internalType": "uint256",
          "name": "",
          "type": "uint256"
        }
      ],
      "payable": false,
      "stateMutability": "view",
      "type": "function"
    },
    {
      "constant": true,
      "inputs": [],
      "name": "getCurrentBlockNumber",
      "outputs": [
        {
          "internalType": "uint256",
          "name": "",
          "type": "uint256"
        }
      ],
      "payable": false,
      "stateMutability": "view",
      "type": "function"
    }
  ],
  "bytecode": "0x608060405234801561001057600080fd5b504360008190555060b6806100266000396000f3fe6080604052348015600f57600080fd5b506004361060325760003560e01c80636fd902e1146037578063ac2d6575146053575b600080fd5b603d606f565b6040518082815260200191505060405180910390f35b60596078565b6040518082815260200191505060405180910390f35b60008054905090565b6000805490509056fea265627a7a72315820977f49d684bc467945a005f0a09737db0880d9210cb7054d2501cc515704e39464736f6c63430005100032",
  "source": "// SPDX-License-Identifier: MIT\npragma solidity >=0.4.22 <0.9.0;\n\ncontract BlockNumber {\n    uint256 private initBlockBumber;\n\n    constructor() public {\n        initBlockBumber = block.number;\n    }\n\n    function getInitBlockNumber() public view returns (uint256) {\n        return initBlockBumber;\n    }\n\n    function getCurrentBlockNumber() public view returns (uint256) {\n        return initBlockBumber;\n    }\n}\n",
  "sourcePath": "C:\\Users\\Administrator\\Desktop\\gec-academy\\3\\block-number\\contracts\\BlockNumber.sol",
  "compiler": {
    "name": "solc",
    "version": "0.5.16+commit.9c3226ce.Emscripten.clang"
  },
  "schemaVersion": "3.4.3",
  "updatedAt": "2021-08-31T08:32:07.634Z",
  "networkType": "ethereum",
  "devdoc": {
    "methods": {}
  },
  "userdoc": {
    "methods": {}
  }
}